:020000040000FA
:060000008EEF11F012006A
:020006001200E6
:060008000EEF00F01200F3
:02000E000100EF
:0C00100058230000000100005800000010
:04001C00D8CFE4FF56
:10002000E0CFE4FFE46EDACFE4FFE2CFDAFFE9CF1E
:10003000E4FFEACFE4FFF6CFE4FFF7CFE4FFF3CF2E
:10004000E4FFF4CFE4FFFACFE4FF00EE14F0140E67
:10005000E80403E3EECFE4FFFBD7E652F2A4C0D0FE
:10006000F2940101042B000E0523062B07233D0EFD
:1000700005AF02D0D89003D0045D000E055901E20F
:10008000A3D0046B056B010E016F19C11AF01AC1E0
:100090001BF01BC11CF01CC11DF095EC0CF01BC02B
:1000A00010F01CC011F01DC012F01EC013F02BC1C7
:1000B00020F02CC121F02DC122F02EC123F010C060
:1000C0001BF011C01CF012C01DF013C01EF045EC57
:1000D0000DF01BC00CF01CC00DF01DC00EF01EC0BA
:1000E0000FF02FC120F030C121F031C122F032C118
:1000F00023F00CC01BF00DC01CF00EC01DF00FC093
:100100001EF098EC0DF01BC008F01CC009F01DC0DB
:100110000AF01EC00BF0206A216A226A400E236E8C
:1001200008C01BF009C01CF00AC01DF00BC01EF077
:1001300098EC0DF01BC004F01CC005F01DC006F0CB
:100140001EC007F0C30E206EF50E216E480E226E03
:10015000400E236E04C01BF005C01CF006C01DF04D
:1001600007C01EF098EC0DF01BC000F01CC001F0A1
:100170001DC002F01EC003F0206A216A4C0E226EE0
:10018000420E236E00C01BF001C01CF002C01DF027
:1001900003C01EF045EC0DF01BC048F11CC049F136
:1001A0001DC04AF11EC04BF119C14CF11AC14DF1ED
:1001B0001BC14EF11CC14FF10101196B1A6B1B6B76
:1001C0001C6B082B000E0923D890075104E6620E21
:1001D000065D020E075904E3066B076B010E026F02
:1001E000E55200EE27F0140EE80403E3E5CFEDFF3F
:1001F000FBD7E5CFFAFFE5CFF4FFE5CFF3FFE5CF7F
:10020000F7FFE5CFF6FFE5CFEAFFE5CFE9FFE5CF62
:10021000DAFFE550E5CFE0FFE5CFD8FF10000001A1
:10022000756B766B776B786BA96BAA6B700EAB6F87
:10023000410EAC6FAD6BAE6B900EAF6F410EB06FF9
:10024000286A296A800E2A6E3F0E2B6E2FC120F07D
:1002500030C121F031C122F032C123F028C01BF09F
:1002600029C01CF02AC01DF02BC01EF045EC0DF07B
:100270001BC0B9F01CC0BAF01DC0BBF01EC0BCF062
:100280000001B56BB66BB76BB86BC16BC26B700E10
:10029000C36F410EC46FC56BC66B900EC76F410E26
:1002A000C86F286A296A800E2A6E3F0E2B6E2FC1F6
:1002B00020F030C121F031C122F032C123F028C03A
:1002C0001BF029C01CF02AC01DF02BC01EF045EC0D
:1002D0000DF01BC0D1F01CC0D2F01DC0D3F01EC069
:1002E000D4F00001CD6BCE6BCF6BD06B796B7A6B9A
:1002F0007B6B7C6B0DC189F00EC18AF00FC18BF056
:1003000010C18CF0050E956F966B11C197F012C15C
:1003100098F013C199F014C19AF0080EA36FA46B62
:1003200058EC06F06B0EE66E000EE66E6A0EE66E98
:10033000000EE66E620EE66E000EE66E600EE66E73
:10034000000EE66E6EEC09F0286E080EE15E285095
:10035000000913E0900E0001601901E1615101E014
:100360000BD00101086B096B00016251000EF350C4
:1003700063110101296F2A6B00D00101025101E0D4
:10038000026B015101E180D1016B81A018D081A8DD
:100390000BD0E6687F0EE66EE668E66E8BDBE55214
:1003A000E552E552E5520AD0000EE66EE66AE66EC8
:1003B000E66A80DBE552E552E552E5522FD081A294
:1003C00017D081AA0AD0E668E668E668E66872DBBC
:1003D000E552E552E552E5520AD0000EE66EE66AB5
:1003E000E66EE66A67DBE552E552E552E55216D065
:1003F0000851155D0951165904E2296B2A6B18EC56
:1004000007F029C1E6FF2AC1E6FF29C1E6FF2AC19C
:10041000E6FF50DBE552E552E552E55281BC02D0E1
:1004200081AE00D0010EE66EE66A96EC06F0E5526B
:10043000E552F3CF34F0F4CF35F034C01CF035C0C2
:100440001DF080EC0CF01BC030F01CC031F01DC062
:1004500032F01EC033F0206A216AA00E226E400ED8
:10046000236E30C01BF031C01CF032C01DF033C011
:100470001EF098EC0DF01BC02CF01CC02DF01DC020
:100480002EF01EC02FF0206A216A800E226E450ECB
:10049000236E2CC01BF02DC01CF02EC01DF02FC0F1
:1004A0001EF045EC0DF01BC028F01CC029F01DC04B
:1004B0002AF01EC02BF037C120F038C121F039C11D
:1004C00022F03AC123F028C01BF029C01CF02AC03A
:1004D0001DF02BC01EF098EC0DF01BC081F01CC06D
:1004E00082F01DC083F01EC084F0020EE66EE66A44
:1004F00096EC06F0E552E552F3CF34F0F4CF35F048
:1005000034C01CF035C01DF080EC0CF01BC030F086
:100510001CC031F01DC032F01EC033F0206A216AC9
:10052000A00E226E400E236E30C01BF031C01CF0B6
:1005300032C01DF033C01EF098EC0DF01BC02CF043
:100540001CC02DF01DC02EF01EC02FF0206A216AA5
:10055000800E226E450E236E2CC01BF02DC01CF0A9
:100560002EC01DF02FC01EF045EC0DF01BC028F072
:100570001CC029F01DC02AF01EC02BF037C120F08E
:1005800038C121F039C122F03AC123F028C01BF054
:1005900029C01CF02AC01DF02BC01EF098EC0DF0F5
:1005A0001BC085F01CC086F01DC087F01EC088F0FF
:1005B00081C028F082C029F083C02AF084C02BF0CB
:1005C000180ED8902B322A3229322832E806F9E167
:1005D000285000019B6F83C028F084C029F00001DF
:1005E0002A6A2B6A285000019C6F82C028F083C0C1
:1005F00029F084C02AF000012B6A285000019D6F69
:1006000081519E6F85C028F086C029F087C02AF0EE
:1006100088C02BF0180ED8902B322A32293228327B
:10062000E806F9E1285000019F6F87C028F088C0D4
:1006300029F000012A6A2B6A28500001A06F86C0A9
:1006400028F087C029F088C02AF000012B6A2850C2
:100650000001A16F8551A26FE66AA3C0E6FF9B0E61
:10066000E66E000EE66E97C0E6FF98C0E6FF99C002
:10067000E6FF9AC0E6FF19EC08F0286E080EE15E6E
:100680002850000901E1E8D74DD61200D9CFE6FF86
:10069000E1CFD9FF040EE126DE6ADE6ADE6ADD6A9A
:1006A000DD52DD52FB0EDBCF28F0FC0EDBCF29F054
:1006B000FD0EDBCF2AF0FE0EDBCF2BF0F70EDBCFEB
:1006C0002CF0F80EDBCF2DF0F90EDBCF2EF0FA0E6A
:1006D000DBCF2FF02CC020F02DC021F02EC022F057
:1006E0002FC023F028C01BF029C01CF02AC01DF029
:1006F0002BC01EF0AEEC0CF01BC0A5F01CC0A6F089
:100700001DC0A7F01EC0A8F0B9C020F0BAC021F0EB
:10071000BBC022F0BCC023F0A5C01BF0A6C01CF0DB
:10072000A7C01DF0A8C01EF098EC0DF01BC028F06B
:100730001CC029F01DC02AF01EC02BF028C020F0DC
:1007400029C021F02AC022F02BC023F0B5C01BF035
:10075000B6C01CF0B7C01DF0B8C01EF0AFEC0CF076
:100760001BC0B5F01CC0B6F01DC0B7F01EC0B8F07D
:10077000B5C020F0B6C021F0B7C022F0B8C023F059
:10078000ADC01BF0AEC01CF0AFC01DF0B0C01EF07D
:1007900098EC0DF01BC02CF01CC02DF01DC02EF0ED
:1007A0001EC02FF02CC020F02DC021F02EC022F052
:1007B0002FC023F0A5C01BF0A6C01CF0A7C01DF0E1
:1007C000A8C01EF0AFEC0CF01BC028F01CC029F034
:1007D0001DC02AF01EC02BF028C020F029C021F037
:1007E0002AC022F02BC023F0A9C01BF0AAC01CF025
:1007F000ABC01DF0ACC01EF098EC0DF01BC0DEFFCE
:100800001CC0DEFF1DC0DEFF1EC0DDFFDD52DD525D
:10081000206A216A7A0E226E440E236EB5C01BF048
:10082000B6C01CF0B7C01DF0B8C01EF061EC0EF0F1
:10083000010A08E10001B56BB66B7A0EB76F440E82
:10084000B86F19D0206A216A7A0E226EC40E236E08
:10085000B5C01BF0B6C01CF0B7C01DF0B8C01EF08C
:100860006AEC0EF0010A07E10001B56BB66B7A0E77
:10087000B76FC40EB86FDECF1AF0DECF1BF0DECF3D
:100880001CF0DDCF1DF0DD52DD52040EE15C03E211
:1008900000D0E16AE552E16EE552E7CFD9FF1200E0
:1008A000D9CFE6FFE1CFD9FF040EE126DE6ADE6A8A
:1008B000DE6ADD6ADD52DD52FB0EDBCF28F0FC0E76
:1008C000DBCF29F0FD0EDBCF2AF0FE0EDBCF2BF0C5
:1008D000F70EDBCF2CF0F80EDBCF2DF0F90EDBCFCF
:1008E0002EF0FA0EDBCF2FF02CC020F02DC021F01F
:1008F0002EC022F02FC023F028C01BF029C01CF00E
:100900002AC01DF02BC01EF0AEEC0CF01BC0BDF0D9
:100910001CC0BEF01DC0BFF01EC0C0F0D1C020F092
:10092000D2C021F0D3C022F0D4C023F0BDC01BF050
:10093000BEC01CF0BFC01DF0C0C01EF098EC0DF092
:100940001BC028F01CC029F01DC02AF01EC02BF0CF
:1009500028C020F029C021F02AC022F02BC023F0AB
:10096000CDC01BF0CEC01CF0CFC01DF0D0C01EF01B
:10097000AFEC0CF01BC0CDF01CC0CEF01DC0CFF012
:100980001EC0D0F0CDC020F0CEC021F0CFC022F0EC
:10099000D0C023F0C5C01BF0C6C01CF0C7C01DF0FE
:1009A000C8C01EF098EC0DF01BC02CF01CC02DF040
:1009B0001DC02EF01EC02FF02CC020F02DC021F045
:1009C0002EC022F02FC023F0BDC01BF0BEC01CF013
:1009D000BFC01DF0C0C01EF0AFEC0CF01BC028F073
:1009E0001CC029F01DC02AF01EC02BF028C020F02A
:1009F00029C021F02AC022F02BC023F0C1C01BF077
:100A0000C2C01CF0C3C01DF0C4C01EF098EC0DF0B5
:100A10001BC0DEFF1CC0DEFF1DC0DEFF1EC0DDFFF1
:100A2000DD52DD52206A216A7A0E226E440E236E58
:100A3000CDC01BF0CEC01CF0CFC01DF0D0C01EF04A
:100A400061EC0EF0010A08E10001CD6BCE6B7A0E6D
:100A5000CF6F440ED06F19D0206A216A7A0E226EB1
:100A6000C40E236ECDC01BF0CEC01CF0CFC01DF055
:100A7000D0C01EF06AEC0EF0010A07E10001CD6B58
:100A8000CE6B7A0ECF6FC40ED06FDECF1AF0DECFF2
:100A90001BF0DECF1CF0DDCF1DF0DD52DD52040E69
:100AA000E15C03E200D0E16AE552E16EE552E7CF96
:100AB000D9FF1200D9CFE6FFE1CFD9FF8280000E27
:100AC00001015215286E800E5315296EFD0EDBCFE5
:100AD0002AF0FE0EDBCF2BF0000E2A16800E2B160E
:100AE0002A50281802E12B50291815E0000EE66E56
:100AF000E66A57EC10F0E552E552000EE66EE66A43
:100B000027EC10F0E552E552FD0EDBCF52F1FE0E60
:100B1000DBCF53F1A9D0FD0EDBCF28F0FE0EDBCFEB
:100B200029F0293404E228500008000E295412E26A
:100B3000FD0EDBCFE6FFFE0EDBCFE6FF87EC10F00D
:100B4000E552E552000EE66EE66A57EC10F0E5520B
:100B5000E55219D0000EE66EE66A87EC10F0E55219
:100B6000E552FD0EDBCF28F0FE0EDBCF29F0286C1E
:100B7000291E000E292228C0E6FF29C0E6FF57ECF7
:100B800010F0E552E552FD0EDBCF52F1FE0EDBCF49
:100B900053F18282000E01015415286E800E551506
:100BA000296EFB0EDBCF2AF0FC0EDBCF2BF0000E04
:100BB0002A16800E2B162A50281802E12B502918CD
:100BC00015E0000EE66EE66A27EC10F0E552E552FD
:100BD000000EE66EE66AF7EC0FF0E552E552FB0E0A
:100BE000DBCF54F1FC0EDBCF55F13ED0FB0EDBCF5B
:100BF00028F0FC0EDBCF29F0293404E2285000084D
:100C0000000E295412E2FD0EDBCFE6FFFE0EDBCF15
:100C1000E6FF27EC10F0E552E552000EE66EE66ABC
:100C2000F7EC0FF0E552E55219D0000EE66EE66AD9
:100C300027EC10F0E552E552FD0EDBCF28F0FE0E5A
:100C4000DBCF29F0286C291E000E292228C0E6FFE0
:100C500029C0E6FFF7EC0FF0E552E552FB0EDBCFC3
:100C600054F1FC0EDBCF55F1E552E7CFD9FF12006E
:100C7000D9CFE6FFE1CFD9FFFD0EDB0409E1FE0E7F
:100C8000DBCFE6FF67EC11F0E5529EA8FED70CD053
:100C9000FD0EDB50020808E1FE0EDBCFE6FF50EC54
:100CA00011F0E552A4A8FED7E552E7CFD9FF120014
:100CB000010E926E100E936E946A0F015D6B5C6B69
:100CC000D1EC07F0D40EE66E34EC11F0E552F28E62
:100CD000F28CF2860F01100E5A6F030ECA6E000ED0
:100CE000E66EE66A57EC10F0E552E552000EE66E4D
:100CF000E66A27EC10F0E552E552010EE66EE66872
:100D0000E7EC10F0E552E552010EE66EE6680EECF7
:100D100011F0E552E552E66A030EE66EAF0EE66E9E
:100D2000B7EC10F0E552E552E5521200D9CFE6FFDC
:100D3000E1CFD9FF010E286E296AFD0E28C0DBFF26
:100D4000FE0E29C0DBFF285029100BE0E66A030ED7
:100D5000E66EAF0EE66EB7EC10F0E552E552E552E6
:100D600016D0020E286E296AFD0E28C0DBFFFE0E8B
:100D700029C0DBFF285029100AE0E66A070EE66E5C
:100D8000AF0EE66EB7EC10F0E552E552E552AAEC74
:100D900011F0A5EC11F0000901E0FBD79CEC11F07B
:100DA00000D0E552E7CFD9FF1200D9CFE6FFE1CF5F
:100DB000D9FFFD0EDBCF28F0FE0EDBCF29F0293462
:100DC00004E228500008000E295413E2FD0EDBCF88
:100DD00028F0FE0EDBCF29F0FF0E28167F0E291615
:100DE00028C0E6FF29C0E6FF57EC10F0E552E552B7
:100DF0001BD0D950FD0FE96EFF0EDA20EA6EEE50DF
:100E0000ED1012E0FD0EDBCF28F0FE0EDBCF29F057
:100E1000FF0E28167F0E291628C0E6FF29C0E6FF20
:100E200027EC10F0E552E552E552E7CFD9FF12006A
:100E3000000EE66EE66A87EC10F0E552E552000E11
:100E4000E66EE66A57EC10F0E552E552000EE66EEB
:100E5000E66A27EC10F0E552E552000EE66EE66A0F
:100E6000F7EC0FF0E552E552829082921200D9CF52
:100E7000E6FFE1CFD9FF020EE126FE0EDB50020AAB
:100E800030E0030A09E0010A01E02CD0FC0EDBCFC0
:100E9000DEFFDBCFDDFF26D0F80EDBCF28F0F90E2A
:100EA000DBCF29F0FA0EDBCF2AF0FB0EDBCF2BF0E5
:100EB00075C020F076C021F077C022F078C023F012
:100EC00028C01BF029C01CF02AC01DF02BC01EF04A
:100ED000AEEC0CF032EC0EF01CC0DEFF1DC0DDFFEE
:100EE00001D000D0DECFE6FFDDCFE6FF5EDFE552CA
:100EF000E552020EE15C02E2E16AE552E16EE55282
:100F0000E7CFD9FF1200D9CFE6FFE1CFD9FF020E1C
:100F1000E126DE6ADD6ADECF28F0DDCF29F0FA0EA9
:100F2000DB50000129AE02D0D89003D0285C000E1F
:100F300029582DE2FD0EDBCF2CF0FE0EDBCF2DF07D
:100F4000080E1C6E1D6ADECF21F0DDCF22F005EC0D
:100F50000EF01A502CC02AF02DC02BF005E0D890CE
:100F60002A362B36E804FBE1FB0EDBCF28F0FC0E23
:100F7000DBCF29F0DE502824E96EDD502920EA6E0F
:100F80002AC0EFFFDF2A010E01E3DB2AC4D7020EDD
:100F9000E15C02E2E16AE552E16EE552E7CFD9FF9A
:020FA00012003D
:0E0FA200800EE66ECCDAE5520E01436BFB0EBC
:100FB000446F060E456F200E706E729E728C606AD2
:100FC0000F01306B0E01806B906BA06BB06BC06B30
:100FD000D06BE00E7D6FE06BE16B0E0EE46FA00E48
:100FE000E56F0E0EE86F800EE96F080EEC6FED6B8B
:100FF000F06F600EF16F1F0E466F476B100E716F32
:10100000230E726F410E736F746B756B766B776B1B
:10101000786B796B040E7A6F7B6B7B6BF869E00EF3
:10102000F96FF997FC6BFD6BFD97E66A89DAE5527B
:101030001200D9CFE6FFE1CFD9FF1A0EE126D95031
:10104000060FE96EDACFEAFF200EEE6E0F0EED6EA0
:10105000D950080FE96EDACFEAFF100EEE6E0F0ED0
:10106000ED6ED9500A0FE96EDACFEAFF000EEE6E90
:101070000F0EED6ED9500C0FE96EDACFEAFF800E3D
:10108000EE6E0E0EED6ED9500E0FE96EDACFEAFF5E
:10109000900EEE6E0E0EED6ED950100FE96EDACF97
:1010A000EAFFA00EEE6E0E0EED6ED950120FE96E35
:1010B000DACFEAFFB00EEE6E0E0EED6ED950140FC1
:1010C000E96EDACFEAFFC00EEE6E0E0EED6ED9506D
:1010D000160FE96EDACFEAFFD00EEE6E0E0EED6E51
:1010E0000E017D417F0BE76E190EE7CFDBFFDF6A54
:1010F000DF50080801E2E4D0D950060F286EDACF9D
:1011000029F0DF50020D2850F324E96E2950F42015
:10111000EA6E020EEECFDBFF030EEDCFDBFF020E19
:10112000DBCF1CF0030EDBCF1DF0040E1CC0DBFF79
:10113000050E1DC0DBFFDF50020810E2190EDBCFE9
:10114000F3FFF390F342F3CFDBFFD950190FE96EB1
:10115000DACFEAFFEF50010B01E1B0D0020EDBCF96
:10116000E9FF030EDBCFEAFFEF50080B01E0A6D04A
:10117000FC0E286E020EDBCFE9FF030EDBCFEAFF89
:101180002850EF16F70EDB50030B286E020EDBCF54
:10119000E9FF030EDBCFEAFF2850EF12F70EDBACBE
:1011A00008D0F80EDB504009E76E180EE7CFDBFFE2
:1011B00006D0F80EDB50E76E180EE7CFDBFF050E0A
:1011C000E76E020EDBCFE9FF030EDBCFEAFFE7504D
:1011D000E926000EEA22180EDBCFEFFFF70EDBAA9E
:1011E00006D0010EF36E180EF3CFDBFF02D0180EFF
:1011F000DB6ADBCFE6FFD950FB0FE96EFF0EDA208A
:10120000EA6EEECFE6FFEECFE6FFEECFE6FFEFCFE2
:10121000E6FF010EE76E020EDBCF28F0030EDBCFF8
:1012200029F0E7502826000E292228C0E6FF29C011
:10123000E6FF9BD92A6E070EE15E2A50D950020FB5
:10124000E96EDACFEAFF060EEE26000EED22010E61
:10125000DB6AF80EDB50F36E010EDBCFF4FFF350C8
:10126000F45C1AE2F90EDBCFE9FFDB2AFA0EDBCFE2
:10127000EAFF01E3DB2AEF50E66E020EDBCFE9FF67
:10128000DB2A030EDBCFEAFF01E3DB2AE552E7505E
:10129000EF6E010EDB2ADDD7040EDBCFE9FF050E72
:1012A000DBCFEAFFEF50040B07E1040EDBCFE9FFD1
:1012B000050EDBCFEAFFEF86010E04D0DF2A18D738
:1012C000000E00D0286E1A0EE15C02E2E16AE552DF
:1012D000E16E2850E552E7CFD9FF1200D9CFE6FFE3
:1012E000E1CFD9FF060EE1260001E56B60AE05D027
:1012F000600EDE6E0F0EDD6E4DD00F0130AF05D0EB
:10130000300EDE6E0F0EDD6E45D00E017D51040BEA
:1013100008E18051800B05E0800EDE6E0E0EDD6E62
:1013200039D07D51080B08E19051800B05E0900EFB
:10133000DE6E0E0EDD6E2ED07D51100B08E1A05139
:10134000800B05E0A00EDE6E0E0EDD6E23D07D510B
:10135000200B08E1B051800B05E0B00EDE6E0E0EE2
:10136000DD6E18D07D51400B08E1C051800B05E0C7
:10137000C00EDE6E0E0EDD6E0DD07D51800B08E1CD
:10138000D051800B05E0D00EDE6E0E0EDD6E02D069
:10139000000ECAD0DECFE9FFDDCFEAFFEF501F0B12
:1013A0000001E56F779271AC09D000D0F70EDBCF6A
:1013B000E9FFF80EDBCFEAFFEF86719CD9CFE9FF9A
:1013C000DACFEAFF020EEECFDBFF030EEDCFDBFF3D
:1013D000F70EDBCFE9FFF80EDBCFEAFFEF6ADECFD7
:1013E000E9FFDDCFEAFF050EE926000EEA22050E31
:1013F000EFCFDBFFDB500F0BE66EF90EDBCFE9FF23
:10140000FA0EDBCFEAFFE552E750EF6ED950050F39
:10141000E96EDACFEAFFEF50400B07E0F70EDBCFC3
:10142000E9FFF80EDBCFEAFFEF8CDECFE9FFDDCF7F
:10143000EAFF020EE926000EEA22050EEFCFDBFFDF
:10144000D950050FE96EDACFEAFFEF50080B0DE037
:10145000F70EDBCFE9FFF80EDBCFEAFFEF8A010ED4
:10146000F36E050EF3CFDBFF02D0050EDB6ADBCF98
:10147000E6FFFD0EDBCFE6FFFE0EDBCFE6FFDECFA5
:1014800028F0DDCF29F0010E2826000E292228C0E1
:10149000E6FF29C0E6FF49D92A6E050EE15E2A5013
:1014A000060EDE26000EDD22F90EDBCFE9FFFA0E76
:1014B000DBCFEAFF050EEFCFDBFF040EDB6A050E84
:1014C000DB50F36E040EDBCFF4FFF350F45C19E253
:1014D000DFCFE9FFDF2A010EDBCFEAFF01E3DB2AE2
:1014E000EF50E66EFB0EDBCFE9FFDB2AFC0EDBCF15
:1014F000EAFF01E3DB2AE552E750EF6E040EDB2A38
:10150000DED777AE08D0F70EDBCFE9FFF80EDBCFE2
:10151000EAFFEF88779E020EDBCFE9FF030EDBCFF9
:10152000EAFFEF9E010E00D0286E060EE15C02E29B
:10153000E16AE552E16E2850E552E7CFD9FF12008B
:10154000D9CFE6FFE1CFD9FF1F0E6F16FE0EDB509D
:101550006F12E00E6F14286EFE0EDB50285C01E067
:10156000F8D7E552E7CFD9FF1200D9CFE6FFE1CF98
:10157000D9FF020EE126D950F90F286EFF0EDA20AE
:10158000296E28C0DEFF29C0DDFFF80EDB503BE1ED
:10159000DECFE9FFDDCFEAFFEF50E840E840E8406A
:1015A0001F0BE66EFD0EDBCFE9FFFE0EDBCFEAFF81
:1015B000E552E750EF6EDECFE9FFDDCFEAFFEE52F6
:1015C000EF50200DF3CF28F0FD0EDBCFE9FFFE0E2C
:1015D000DBCFEAFF2850EF12FD0EDB2AFE0E01E3FF
:1015E000DB2ADECFE9FFDDCFEAFFEF50200DF3501D
:1015F000E66EFD0EDBCFE9FFFE0EDBCFEAFFE55224
:10160000E750EF6E88D0DECFE9FFDDCFEAFF020EB4
:10161000E926000EEA22EF50E00BE838E840E66EDB
:10162000FD0EDBCFE9FFFE0EDBCFEAFFE552E75010
:10163000EF6EDECFE9FFDDCFEAFF030EE926000EF5
:10164000EA22EF50080DF3CF28F0FD0EDBCFE9FFC3
:10165000FE0EDBCFEAFF2850EF12FD0EDB2AFE0E56
:1016600001E3DB2ADECFE9FFDDCFEAFF020EE92648
:10167000000EEA22EF50080DF350E00BE66EFD0E6F
:10168000DBCFE9FFFE0EDBCFEAFFE552E750EF6E5E
:10169000FD0EDBCFE9FFFE0EDBCFEAFFEF86DECFEC
:1016A000E9FFDDCFEAFF020EE926000EEA22EF5045
:1016B000030B286EFD0EDBCFE9FFFE0EDBCFEAFF4A
:1016C0002850EF12FD0EDB2AFE0E01E3DB2ADECFEF
:1016D000E9FFDDCFEAFFEE52EF50E66EFD0EDBCF05
:1016E000E9FFFE0EDBCFEAFFE552E750EF6EFD0E9D
:1016F000DB2AFE0E01E3DB2ADECFE9FFDDCFEAFFC6
:10170000EF50E66EFD0EDBCFE9FFFE0EDBCFEAFF0A
:10171000E552E750EF6E020EE15C02E2E16AE5524B
:10172000E16EE552E7CFD9FF1200D9CFE6FFE1CF56
:10173000D9FF020EE126FB0EDBCFDEFFDBCFDDFFA4
:10174000FA0EDB504DE1FD0EDBCFE9FFFE0EDBCFE5
:10175000EAFFEF50080DF350E66EDECFE9FFDDCF74
:10176000EAFFE552E750EF6EFD0EDBCFE9FFFE0E1C
:10177000DBCFEAFFEF50E00BE838E840E66EDECF63
:10178000E9FFDDCFEAFFEE52E552E750EF6EFD0EC6
:10179000DB2AFE0E01E3DB2AFD0EDBCFE9FFFE0EA6
:1017A000DBCFEAFFEF50E00BE838E840286EDECFF1
:1017B000E9FFDDCFEAFF2850EF12DECFE9FFDDCFF2
:1017C000EAFF020EE926000EEA22EF6ADECFE9FF09
:1017D000DDCFEAFF030EE926000EEA22EF6A84D08D
:1017E000FD0EDBCFE9FFFE0EDBCFEAFFEF50200D51
:1017F000F350E66EDECFE9FFDDCFEAFF020EE92609
:10180000000EEA22E552E750EF6EFD0EDBCFE9FF56
:10181000FE0EDBCFEAFFEF50E840E840E8401F0B48
:10182000E66EDECFE9FFDDCFEAFF030EE926000E0C
:10183000EA22E552E750EF6EFD0EDB2AFE0E01E3D1
:10184000DB2AFD0EDBCFE9FFFE0EDBCFEAFFEF5018
:10185000030B286EDECFE9FFDDCFEAFF020EE9269B
:10186000000EEA222850EF12FD0EDBCFE9FFFE0E3C
:10187000DBCFEAFFEF50E00BE840E840E8401F0B09
:10188000286EDECFE9FFDDCFEAFF020EE926000E6B
:10189000EA222850EF12FD0EDB2AFE0E01E3DB2ABE
:1018A000FD0EDBCFE9FFFE0EDBCFEAFFEF50E66E69
:1018B000DECFE9FFDDCFEAFFEE52E552E750EF6EF3
:1018C000FD0EDB2AFE0E01E3DB2AFD0EDBCFE9FF76
:1018D000FE0EDBCFEAFFEF50E66EDECFE9FFDDCF95
:1018E000EAFFE552E750EF6E020EE15C02E2E16AC8
:0C18F000E552E16EE552E7CFD9FF12008F
:0418FC00159E08D05D
:10190000159E1DAE05D01C6C1D1EE86A1D22158E8D
:101910001DC017F01CC016F0276A266A8E0E186EBE
:10192000196AE4EF0EF0159E0CD0159E1DAE09D07D
:101930001A6C1B1E1C1E1D1EE86A1B221C221D2267
:10194000158E1DC017F01CC016F01BC027F01AC062
:1019500026F09E0E186E196AE4EF0EF0237E156ACB
:1019600020EC0FF038EC0FF015B6C8EF0EF015A212
:101970000AD015AA03D015BEC8EF0EF015A4D4EFF7
:101980000EF0D1EF0EF015AA05D015ACD4EF0EF085
:10199000D1EF0EF015A00AD015A808D015BE04D0BE
:1019A00015A402D0DDEF0EF0E1EF0EF0266A196A01
:1019B00023501E5C256E10E31BC027F01CC016F0E0
:1019C0001DC017F01EC024F020C01BF021C01CF069
:1019D00022C01DF0153A09D020C027F021C016F012
:1019E00022C017F023C024F0256C159E15BC158E5F
:1019F00024C018F015B010EF0FF01A0E256010EF8C
:101A00000FF0186A1E6A15A408D01B6C1C1E1D1E40
:101A10001E1EE86A1C221D221E2215AC08D0276C4F
:101A2000161E171E181EE86A1622172218221A6A96
:101A3000255207E01E341D321C321B321A32252E6D
:101A4000F9D71B5027261C5016221D5017221E5056
:101A500018221AC026F0159E18AE0BD0266C271E31
:101A6000161E171E181EE86A272216221722182291
:101A7000158E18A006D0D88017321632273226329B
:101A8000242A24C018F0E4EF0EF0156A20EC0FF0C1
:101A900038EC0FF015B6C8EF0EF015A205D015BA48
:101AA000C8EF0EF0CFEF0EF015BADBEF0EF015A079
:101AB00005D015B8C8EF0EF0DBEF0EF015B8CFEF7C
:101AC0000EF0196A7F0E1E24186EE86A1922235040
:101AD000185EE86A195A1A0E246E1E6A266A276A68
:101AE000166A176A20501B5E21501C5A22501D5A3C
:101AF000000E1E5A09E720501B2621501C2222509E
:101B00001D22000E1E2201D0268AD8901B361C36BC
:101B10001D361E36D8902636273616361736242E12
:101B2000E1D71D501C101B10D8A4268AE4EF0EF03C
:101B3000156A20EC0FF038EC0FF015B6C8EF0EF078
:101B400015A205D015B8C8EF0EF0CFEF0EF015AA0C
:101B500005D015B0C8EF0EF0CFEF0EF015B002D0E3
:101B600015A802D0DBEF0EF0196A23501E24186E60
:101B7000E86A19227E0E185EE86A195A266A276AF0
:101B8000166A176A22501D02F4CF17F0F3CF16F031
:101B900021501D02F3502726F4501622000E172262
:101BA00022501C02F3502726F4501622000E172252
:101BB00020501D02F3502626F4502722000E162234
:101BC000172221501C02F3502626F4502722000E23
:101BD0001622172222501B02F3502626F4502722E9
:101BE000000E1622172220501C02F4502626000E4A
:101BF00027221622172221501B02F4502626000EFF
:101C0000272216221722E4EF0EF01DC027F01CC079
:101C100026F01C502102F4CF1BF0F3CF1AF01D5018
:101C20002202F4CF1DF0F3CF1CF02102F3501B264B
:101C3000F4501C22E86A1D2226502202F3501B2673
:101C4000F4501C22E86A1D2222AE2BEF0EF0265023
:101C50001C5E27501D5A27AE000C21501C5E2250DE
:101C60001D5A000C156A20EC0FF015B63CEF0EF073
:101C700015A20ED015B405D07F0E1D6EFF0E1C6E82
:101C80001FD0800E1D6E1C6A1BD01D6A1C6A18D0E6
:101C900015B0FBD78F0E1E60EDD77E0E1E64F5D7F4
:101CA0008E0E1E5C05E0D8901D321C321E2AF8D71D
:101CB00015A406D01C6C1D1EE86A1D221DAEE5D7BA
:101CC000120073EC0EF015B6000C15B0000C15B434
:101CD000000C010C73EC0EF015B6000C15B0000CE6
:101CE00015A4000C010C156A20EC0FF038EC0FF075
:101CF00015B6120015AE08D015A004D015A802D054
:101D0000158012001590120023501E5C0BE122502A
:101D10001D5C08E121501C5C05E120501B5C02E1C8
:101D200015801200D8A002D0158E10D01E5023C0EE
:101D30001EF0236E1D5022C01DF0226E1C5021C0CB
:101D40001CF0216E1B5020C01BF0206E23501E5C27
:101D500010E0FF0F09E0159015B403D015AE1584FF
:101D6000120015AE15941200232AD8902232213287
:101D7000203220501B5E21501C5A22501D5A1DBE7D
:101D8000EAD7D8901B361C361D361E2EF8D7C8D77A
:101D90007F0E1E6EFF0E1D6E1C6E1B6E12007F0EE0
:101DA00015BEFF0E1E6E02D07F0E1E6E800E1D6EC3
:101DB0001C6A1B6AF3D715AE04D0800E1E6E1D6A16
:101DC000F7D71E6A1D6AF4D7175016102710261071
:101DD000F8E019BEF0D717BE0CD018501910EBE080
:101DE000D89026362736163617361806D8A0190684
:101DF000F2D71950D4E11828D2E026AE11D07F0EC8
:101E0000261402E127A00CD0272AE86A16221722FE
:101E100007E3D880173216322732182A1828BFE075
:101E20001850C9E027C01BF016C01CF017341D6EF7
:101E300018301E6E1D321E9E15BE1E8ECEEF0EF089
:101E40001D361E3602E31584157E06E115801E6AD6
:101E50001D6A1C6A1B6A12001E2803E0D8801D320E
:101E60001200D8901D3202E1158212001586120070
:101E70002236233602E3158C157E06E11588236A87
:101E8000226A216A206A1200232803E0D8802232C5
:0C1E90001200D8902232EAE1158A1200FC
:041E9C000001DF6BF7
:101EA000E06B1200D9CFE6FFE1CFD9FFE652DF6A3F
:101EB000DFCF28F0060EE76E2818E8AE02D0E73430
:101EC00002D0E750285C29E2DFCF28F0296A28BE3B
:101ED0002968D89028362936FB0EDB502824E96E75
:101EE000FC0EDB502920EA6EEECFE6FFEFCFE6FFD7
:101EF000DFCF2AF02B6A2ABE2B68FD0EDB502A2486
:101F0000E96EFE0EDB502B20EA6EEF50E66E0AD82B
:101F1000E552E552E552DF2ACBD7E552E552E7CF4D
:101F2000D9FF1200D9CFE6FFE1CFD9FFE652050E67
:101F3000DF6EDF5000D0E552E552E7CFD9FF120047
:101F4000D9CFE6FFE1CFD9FFE552E7CFD9FF1200A5
:101F50000E0EF66E000EF76E000EF86E0001090010
:101F6000F550DA6F0900F550DB6F03E1DA6701D055
:101F70003DD00900F550D56F0900F550D66F090026
:101F8000F550D76F09000900F550E96E0900F550CA
:101F9000EA6E090009000900F550D86F0900F550F4
:101FA000D96F09000900F6CFDCF0F7CFDDF0F8CFEC
:101FB000DEF0D5C0F6FFD6C0F7FFD7C0F8FF0001AE
:101FC000D85302E1D95307E00900F550EE6ED80767
:101FD000F8E2D907F9D7DCC0F6FFDDC0F7FFDEC0B5
:0E1FE000F8FF0001DA07000EDB5BBFD712002E
:021FEE00D9CF49
:101FF000E6FFDACFE6FFE1CFD9FFE2CFDAFFE65224
:10200000E652FC0EDBCF28F0FD0EDBCF29F0060EEA
:10201000D89028362936E804FBE128C0DEFF29C025
:10202000DDFF010EDBCF48FFDF50E840E8403F0B0B
:10203000300B286ECF0E0F0147152810476FE55261
:0E204000E552E552E5CFDAFFE7CFD9FF1200F7
:02204E00D9CFE8
:10205000E6FFDACFE6FFE1CFD9FFE2CFDAFFE652C3
:10206000E652FC0EDBCF28F0FD0EDBCF29F0060E8A
:10207000D89028362936E804FBE128C0DEFF29C0C5
:10208000DDFF010EDBCF4BFFDF50E840E8403F0BA8
:10209000300B286ECF0E0F014A1528104A6FE552FB
:0E20A000E552E552E5CFDAFFE7CFD9FF120097
:0220AE00D9CF88
:1020B000E6FFDACFE6FFE1CFD9FFE2CFDAFFE65263
:1020C000E652FC0EDBCF28F0FD0EDBCF29F0060E2A
:1020D000D89028362936E804FBE128C0DEFF29C065
:1020E000DDFF010EDBCF4EFFDF50E840E8403F0B45
:1020F000300B286ECF0E0F014D1528104D6FE55295
:0E210000E552E552E5CFDAFFE7CFD9FF120036
:02210E00D9CF27
:10211000E6FFDACFE6FFE1CFD9FFE2CFDAFFE65202
:10212000E652FC0EDBCF28F0FD0EDBCF29F0060EC9
:10213000D89028362936E804FBE128C0DEFF29C004
:10214000DDFF010EDBCF51FFDF50E840E8403F0BE1
:10215000300B286ECF0E0F0150152810506FE5522E
:0E216000E552E552E5CFDAFFE7CFD9FF1200D6
:02216E00D9CFC7
:10217000E6FFDACFE6FFE1CFD9FFE2CFDAFFC26AAE
:10218000C16AC06AFC0EDB507C0BC26EFB0EDB50DA
:10219000C16EFD0EDB50040DF350380B296EFD0EA1
:1021A000DB380F0B070B286EFD0EDB50800B281061
:1021B0002910C06EFC0EDBAE03D09E9C9D8CF28C71
:0E21C000C280E552E5CFDAFFE7CFD9FF12006B
:0221CE00D9CF67
:1021D000E6FFDACFE6FFE1CFD9FFE2CFDAFF0F016A
:1021E0000C0E4D6F9998FC0EDB50100BE840E84048
:1021F0003F0B9912949C99A406D08894FD0EDB5055
:10220000A96E888405D0CA94FD0EDB50CB6ECA84BB
:0C221000E552E5CFDAFFE7CFD9FF12005E
:04221C00D9CFE6FF31
:10222000DACFE6FFE1CFD9FFE2CFDAFF0F010C0EE4
:102230004A6F9998FC0EDB50100BE8407F0B991207
:10224000949E99A606D08894FD0EDB50A96E8884D2
:1022500005D0CA94FD0EDB50CB6ECA84E552E5CFA3
:08226000DAFFE7CFD9FF1200FD
:08226800D9CFE6FFDACFE6FF53
:10227000E1CFD9FFE2CFDAFFFD0EDB507F0BD56E49
:10228000D76AD66AF294FD0EDBAE02D0F28A01D094
:10229000F29AD58EE552E5CFDAFFE7CFD9FF1200EB
:1022A000D9CFE6FFDACFE6FFE1CFD9FFE2CFDAFF01
:1022B000BAAC04D0BA900001E3B3BA80FD0EDB5093
:0E22C000796EE552E5CFDAFFE7CFD9FF1200C5
:0222CE00D9CF66
:1022D000E6FFDACFE6FFE1CFD9FFE2CFDAFFACAC21
:1022E00004D0AC900001E4B3AC80FD0EDB50AD6EC9
:0C22F000E552E5CFDAFFE7CFD9FF12007E
:0422FC00410EF36E2E
:1023000000EE00F00E0E01D81200EA6002D0EE6A74
:0C231000FCD7F350E9601200EE6AFCD725
:04231C001DEE00F0C2
:102320002DEE00F0F86A159CA8EC0FF003EC00F01D
:082330000FEC01F0FBD71200D5
:08233800C4502B6E2A6AC35049
:0A2340002A10F36E2BC0F4FF120008
:06234A00C250020B01E08D
:04235000010E120068
:04235400C28212002F
:08235800080001010000000073
:102360000000000000800000007900000004000070
:10237000000000000000000000000000000000005D
:10238000000000000080400000A0410000803F00ED
:102390000000408FC2F53D295C8F3D8FC2753C0027
:1023A000000000000000000000000000000001002C
:020000040030CA
:0100000015EA
:0100010012EC
:010003007E7E
:010005008971
:00000001FF
